{
  "contractName": "VehicleTracking",
  "abi": [
    {
      "constant": true,
      "inputs": [
        {
          "internalType": "uint256",
          "name": "",
          "type": "uint256"
        }
      ],
      "name": "vehicleDataRecords",
      "outputs": [
        {
          "internalType": "uint256",
          "name": "frame",
          "type": "uint256"
        },
        {
          "internalType": "string",
          "name": "classType",
          "type": "string"
        },
        {
          "internalType": "uint256",
          "name": "classId",
          "type": "uint256"
        },
        {
          "internalType": "uint256",
          "name": "trackerId",
          "type": "uint256"
        }
      ],
      "payable": false,
      "stateMutability": "view",
      "type": "function"
    },
    {
      "constant": false,
      "inputs": [
        {
          "internalType": "uint256",
          "name": "_frame",
          "type": "uint256"
        },
        {
          "internalType": "string",
          "name": "_classType",
          "type": "string"
        },
        {
          "internalType": "uint256",
          "name": "_classId",
          "type": "uint256"
        },
        {
          "internalType": "uint256",
          "name": "_trackerId",
          "type": "uint256"
        }
      ],
      "name": "addVehicleData",
      "outputs": [],
      "payable": false,
      "stateMutability": "nonpayable",
      "type": "function"
    },
    {
      "constant": true,
      "inputs": [
        {
          "internalType": "uint256",
          "name": "index",
          "type": "uint256"
        }
      ],
      "name": "getVehicleData",
      "outputs": [
        {
          "internalType": "uint256",
          "name": "",
          "type": "uint256"
        },
        {
          "internalType": "string",
          "name": "",
          "type": "string"
        },
        {
          "internalType": "uint256",
          "name": "",
          "type": "uint256"
        },
        {
          "internalType": "uint256",
          "name": "",
          "type": "uint256"
        }
      ],
      "payable": false,
      "stateMutability": "view",
      "type": "function"
    }
  ],
  "bytecode": "0x608060405234801561001057600080fd5b5061062a806100206000396000f3fe608060405234801561001057600080fd5b50600436106100415760003560e01c80638ef93e86146100465780639117dd3714610102578063c8920eb1146101db575b600080fd5b6100726004803603602081101561005c57600080fd5b8101908080359060200190929190505050610297565b6040518085815260200180602001848152602001838152602001828103825285818151815260200191508051906020019080838360005b838110156100c45780820151818401526020810190506100a9565b50505050905090810190601f1680156100f15780820380516001836020036101000a031916815260200191505b509550505050505060405180910390f35b6101d96004803603608081101561011857600080fd5b81019080803590602001909291908035906020019064010000000081111561013f57600080fd5b82018360208201111561015157600080fd5b8035906020019184600183028401116401000000008311171561017357600080fd5b91908080601f016020809104026020016040519081016040528093929190818152602001838380828437600081840152601f19601f820116905080830192505050505050509192919290803590602001909291908035906020019092919050505061036c565b005b610207600480360360208110156101f157600080fd5b810190808035906020019092919050505061040a565b6040518085815260200180602001848152602001838152602001828103825285818151815260200191508051906020019080838360005b8381101561025957808201518184015260208101905061023e565b50505050905090810190601f1680156102865780820380516001836020036101000a031916815260200191505b509550505050505060405180910390f35b600081815481106102a457fe5b9060005260206000209060040201600091509050806000015490806001018054600181600116156101000203166002900480601f0160208091040260200160405190810160405280929190818152602001828054600181600116156101000203166002900480156103565780601f1061032b57610100808354040283529160200191610356565b820191906000526020600020905b81548152906001019060200180831161033957829003601f168201915b5050505050908060020154908060030154905084565b610374610528565b6040518060800160405280868152602001858152602001848152602001838152509050600081908060018154018082558091505090600182039060005260206000209060040201600090919290919091506000820151816000015560208201518160010190805190602001906103eb929190610550565b5060408201518160020155606082015181600301555050505050505050565b60006060600080610419610528565b6000868154811061042657fe5b906000526020600020906004020160405180608001604052908160008201548152602001600182018054600181600116156101000203166002900480601f0160208091040260200160405190810160405280929190818152602001828054600181600116156101000203166002900480156104e25780601f106104b7576101008083540402835291602001916104e2565b820191906000526020600020905b8154815290600101906020018083116104c557829003601f168201915b5050505050815260200160028201548152602001600382015481525050905080600001518160200151826040015183606001518292509450945094509450509193509193565b6040518060800160405280600081526020016060815260200160008152602001600081525090565b828054600181600116156101000203166002900490600052602060002090601f016020900481019282601f1061059157805160ff19168380011785556105bf565b828001600101855582156105bf579182015b828111156105be5782518255916020019190600101906105a3565b5b5090506105cc91906105d0565b5090565b6105f291905b808211156105ee5760008160009055506001016105d6565b5090565b9056fea265627a7a7231582055dcbdb18ae96736ece3ad558b9d6ae7ca8cbe22e66076498902a9c0d6be73c664736f6c63430005100032",
  "source": "pragma solidity ^0.5.16;\n\ncontract VehicleTracking {\n    struct VehicleData {\n        uint256 frame;\n        string classType;\n        uint256 classId;\n        uint256 trackerId;\n    }\n\n    VehicleData[] public vehicleDataRecords;\n\n    function addVehicleData(uint256 _frame, string memory _classType, uint256 _classId, uint256 _trackerId) public {\n        VehicleData memory newData = VehicleData({\n            frame: _frame,\n            classType: _classType,\n            classId: _classId,\n            trackerId: _trackerId\n        });\n\n        vehicleDataRecords.push(newData);\n    }\n\n    function getVehicleData(uint256 index) public view returns (uint256, string memory, uint256, uint256) {\n        VehicleData memory data = vehicleDataRecords[index];\n        return (data.frame, data.classType, data.classId, data.trackerId);\n    }\n}\n",
  "sourcePath": "C:\\Users\\AKSHAY\\Desktop\\vehicle_tracking\\contracts\\VehicleTracking.sol",
  "compiler": {
    "name": "solc",
    "version": "0.5.16+commit.9c3226ce.Emscripten.clang"
  },
  "schemaVersion": "3.4.16",
  "updatedAt": "2024-06-17T10:07:58.184Z",
  "devdoc": {
    "methods": {}
  },
  "userdoc": {
    "methods": {}
  }
}